S00B00004156522E7372656330
S11300000EC01BC01AC019C018C017C016C015C036
S11300101CC013C012C011C010C00FC00EC01124E8
S11300201FBECFEDCDBF20E0A0E6B0E001C01D9221
S1130030A836B207E1F759D0A4C0E2CF369A0895A2
S113004097B19C7F892B87B908951F920F920FB6A1
S11300500F9211242F933F934F935F936F937F934A
S11300608F939F93AF93BF93EF93FF9384B195B115
S113007084B195B1892B89F020916000822F90E0A2
S1130080820F911D820F911DFC01EE59FF4F0180DB
S1130090F281E02D8081865F8083809160008F5F94
S11300A080936000823010F0109260002091600014
S11300B0822F90E0820F911D820F911DFC01EE5959
S11300C0FF4F8081BDDFBADFFF91EF91BF91AF9108
S11300D09F918F917F916F915F914F913F912F915C
S11300E00F900FBE0F901F901895E2E6F0E081E0AC
S11300F080838EB590E09283818383E083838BB584
S113010090E095838483109261001DD087B383604F
S113011087BBC0988EE68EBD1EBC8AE090E030E0BE
S113012020E002C0832F922F4FEF50E762E041504E
S113013050406040E1F700C000008EBD0A968B3F3E
S1130140910580F7F1CF87B5826087BD8FE19EE48A
S11301500197F1F700C0000087B5846087BD80B7C0
S1130160806480BF80B7806380BF80B7816080BFB8
S11301708CB580648CBD8CB580638CBD8FE78DBDE0
S10901800895F894FFCF7E
S9030000FC
